{
  "_format": "hh-sol-artifact-1",
  "contractName": "WavePortal",
  "sourceName": "contracts/WavePortal.sol",
  "abi": [
    {
      "inputs": [],
      "stateMutability": "payable",
      "type": "constructor"
    },
    {
      "anonymous": false,
      "inputs": [
        {
          "indexed": false,
          "internalType": "uint256",
          "name": "totalWaves",
          "type": "uint256"
        },
        {
          "indexed": false,
          "internalType": "uint256",
          "name": "totalPeople",
          "type": "uint256"
        }
      ],
      "name": "NewStats",
      "type": "event"
    },
    {
      "anonymous": false,
      "inputs": [
        {
          "indexed": true,
          "internalType": "address",
          "name": "from",
          "type": "address"
        },
        {
          "indexed": false,
          "internalType": "string",
          "name": "message",
          "type": "string"
        },
        {
          "indexed": false,
          "internalType": "uint256",
          "name": "timestamp",
          "type": "uint256"
        }
      ],
      "name": "NewWave",
      "type": "event"
    },
    {
      "inputs": [
        {
          "internalType": "address",
          "name": "",
          "type": "address"
        }
      ],
      "name": "addressToWaves",
      "outputs": [
        {
          "internalType": "uint256",
          "name": "",
          "type": "uint256"
        }
      ],
      "stateMutability": "view",
      "type": "function"
    },
    {
      "inputs": [],
      "name": "getAllWaves",
      "outputs": [
        {
          "components": [
            {
              "internalType": "address",
              "name": "from",
              "type": "address"
            },
            {
              "internalType": "string",
              "name": "message",
              "type": "string"
            },
            {
              "internalType": "uint256",
              "name": "timestamp",
              "type": "uint256"
            }
          ],
          "internalType": "struct WavePortal.Wave[]",
          "name": "",
          "type": "tuple[]"
        }
      ],
      "stateMutability": "view",
      "type": "function"
    },
    {
      "inputs": [],
      "name": "getTotalPeople",
      "outputs": [
        {
          "internalType": "uint256",
          "name": "",
          "type": "uint256"
        }
      ],
      "stateMutability": "view",
      "type": "function"
    },
    {
      "inputs": [],
      "name": "getTotalWaves",
      "outputs": [
        {
          "internalType": "uint256",
          "name": "",
          "type": "uint256"
        }
      ],
      "stateMutability": "view",
      "type": "function"
    },
    {
      "inputs": [
        {
          "internalType": "address",
          "name": "",
          "type": "address"
        }
      ],
      "name": "lastWavedAt",
      "outputs": [
        {
          "internalType": "uint256",
          "name": "",
          "type": "uint256"
        }
      ],
      "stateMutability": "view",
      "type": "function"
    },
    {
      "inputs": [
        {
          "internalType": "string",
          "name": "_message",
          "type": "string"
        }
      ],
      "name": "wave",
      "outputs": [],
      "stateMutability": "nonpayable",
      "type": "function"
    },
    {
      "inputs": [
        {
          "internalType": "uint256",
          "name": "",
          "type": "uint256"
        }
      ],
      "name": "waves",
      "outputs": [
        {
          "internalType": "address",
          "name": "from",
          "type": "address"
        },
        {
          "internalType": "string",
          "name": "message",
          "type": "string"
        },
        {
          "internalType": "uint256",
          "name": "timestamp",
          "type": "uint256"
        }
      ],
      "stateMutability": "view",
      "type": "function"
    }
  ],
  "bytecode": "0x60806040526200004f6040518060400160405280601181526020017f636f6e7472616374206465706c6f7965640000000000000000000000000000008152506200007760201b6200086a1760201c565b606444426200005f9190620001c4565b6200006b919062000261565b60058190555062000308565b62000117816040516024016200008e919062000184565b6040516020818303038152906040527f41304fac000000000000000000000000000000000000000000000000000000007bffffffffffffffffffffffffffffffffffffffffffffffffffffffff19166020820180517bffffffffffffffffffffffffffffffffffffffffffffffffffffffff83818316178352505050506200011a60201b60201c565b50565b60008151905060006a636f6e736f6c652e6c6f679050602083016000808483855afa5050505050565b60006200015082620001a8565b6200015c8185620001b3565b93506200016e8185602086016200022b565b6200017981620002f7565b840191505092915050565b60006020820190508181036000830152620001a0818462000143565b905092915050565b600081519050919050565b600082825260208201905092915050565b6000620001d18262000221565b9150620001de8362000221565b9250827fffffffffffffffffffffffffffffffffffffffffffffffffffffffffffffffff0382111562000216576200021562000299565b5b828201905092915050565b6000819050919050565b60005b838110156200024b5780820151818401526020810190506200022e565b838111156200025b576000848401525b50505050565b60006200026e8262000221565b91506200027b8362000221565b9250826200028e576200028d620002c8565b5b828206905092915050565b7f4e487b7100000000000000000000000000000000000000000000000000000000600052601160045260246000fd5b7f4e487b7100000000000000000000000000000000000000000000000000000000600052601260045260246000fd5b6000601f19601f8301169050919050565b61131280620003186000396000f3fe608060405234801561001057600080fd5b506004361061007d5760003560e01c80639a2cdc081161005b5780639a2cdc08146100ec578063a42a46631461010a578063bd43a9081461013a578063c781267a146101585761007d565b80632d78cbf014610082578063449d46c0146100b257806361227200146100ce575b600080fd5b61009c60048036038101906100979190610afd565b61018a565b6040516100a99190610f94565b60405180910390f35b6100cc60048036038101906100c79190610b26565b6101a2565b005b6100d661060c565b6040516100e39190610f94565b60405180910390f35b6100f4610616565b6040516101019190610f94565b60405180910390f35b610124600480360381019061011f9190610afd565b61061f565b6040516101319190610f94565b60405180910390f35b610142610637565b60405161014f9190610e90565b60405180910390f35b610172600480360381019061016d9190610b67565b610788565b60405161018193929190610e52565b60405180910390f35b60026020528060005260406000206000915090505481565b42600360003373ffffffffffffffffffffffffffffffffffffffff1673ffffffffffffffffffffffffffffffffffffffff1681526020019081526020016000205410610223576040517f08c379a000000000000000000000000000000000000000000000000000000000815260040161021a90610f74565b60405180910390fd5b42600360003373ffffffffffffffffffffffffffffffffffffffff1673ffffffffffffffffffffffffffffffffffffffff16815260200190815260200160002081905550600160008082825461027991906110aa565b925050819055506000429050600460405180606001604052803373ffffffffffffffffffffffffffffffffffffffff16815260200184815260200183815250908060018154018082558091505060019003906000526020600020906003020160009091909190915060008201518160000160006101000a81548173ffffffffffffffffffffffffffffffffffffffff021916908373ffffffffffffffffffffffffffffffffffffffff16021790555060208201518160010190805190602001906103449291906109c8565b506040820151816002015550506064600554424461036291906110aa565b61036c91906110aa565b61037691906111b0565b6005819055506000600260003373ffffffffffffffffffffffffffffffffffffffff1673ffffffffffffffffffffffffffffffffffffffff1681526020019081526020016000205414156103de5760018060008282546103d691906110aa565b925050819055505b6001600260003373ffffffffffffffffffffffffffffffffffffffff1673ffffffffffffffffffffffffffffffffffffffff168152602001908152602001600020600082825461042e91906110aa565b9250508190555060326005541161057b5761047e6040518060400160405280600781526020017f257320776f6e210000000000000000000000000000000000000000000000000081525033610903565b6000655af3107a40009050478111156104cc576040517f08c379a00000000000000000000000000000000000000000000000000000000081526004016104c390610f34565b60405180910390fd5b60003373ffffffffffffffffffffffffffffffffffffffff16826040516104f290610e3d565b60006040518083038185875af1925050503d806000811461052f576040519150601f19603f3d011682016040523d82523d6000602084013e610534565b606091505b5050905080610578576040517f08c379a000000000000000000000000000000000000000000000000000000000815260040161056f90610f54565b60405180910390fd5b50505b3373ffffffffffffffffffffffffffffffffffffffff167f6728ef66814a55b797863bf8ffcd954b19cbca4ed4f0e6cf04c980705fd82c3683836040516105c3929190610f04565b60405180910390a27f7786a69f509312f8b209403b6e5e56e46ef0b73776a99e1b332732eb3ce280d1600054600154604051610600929190610faf565b60405180910390a15050565b6000600154905090565b60008054905090565b60036020528060005260406000206000915090505481565b60606004805480602002602001604051908101604052809291908181526020016000905b8282101561077f57838290600052602060002090600302016040518060600160405290816000820160009054906101000a900473ffffffffffffffffffffffffffffffffffffffff1673ffffffffffffffffffffffffffffffffffffffff1673ffffffffffffffffffffffffffffffffffffffff1681526020016001820180546106e49061117e565b80601f01602080910402602001604051908101604052809291908181526020018280546107109061117e565b801561075d5780601f106107325761010080835404028352916020019161075d565b820191906000526020600020905b81548152906001019060200180831161074057829003601f168201915b505050505081526020016002820154815250508152602001906001019061065b565b50505050905090565b6004818154811061079857600080fd5b90600052602060002090600302016000915090508060000160009054906101000a900473ffffffffffffffffffffffffffffffffffffffff16908060010180546107e19061117e565b80601f016020809104026020016040519081016040528092919081815260200182805461080d9061117e565b801561085a5780601f1061082f5761010080835404028352916020019161085a565b820191906000526020600020905b81548152906001019060200180831161083d57829003601f168201915b5050505050908060020154905083565b6109008160405160240161087e9190610eb2565b6040516020818303038152906040527f41304fac000000000000000000000000000000000000000000000000000000007bffffffffffffffffffffffffffffffffffffffffffffffffffffffff19166020820180517bffffffffffffffffffffffffffffffffffffffffffffffffffffffff838183161783525050505061099f565b50565b61099b8282604051602401610919929190610ed4565b6040516020818303038152906040527f319af333000000000000000000000000000000000000000000000000000000007bffffffffffffffffffffffffffffffffffffffffffffffffffffffff19166020820180517bffffffffffffffffffffffffffffffffffffffffffffffffffffffff838183161783525050505061099f565b5050565b60008151905060006a636f6e736f6c652e6c6f679050602083016000808483855afa5050505050565b8280546109d49061117e565b90600052602060002090601f0160209004810192826109f65760008555610a3d565b82601f10610a0f57805160ff1916838001178555610a3d565b82800160010185558215610a3d579182015b82811115610a3c578251825591602001919060010190610a21565b5b509050610a4a9190610a4e565b5090565b5b80821115610a67576000816000905550600101610a4f565b5090565b6000610a7e610a7984611009565b610fd8565b905082815260208101848484011115610a9657600080fd5b610aa184828561113c565b509392505050565b600081359050610ab8816112ae565b92915050565b600082601f830112610acf57600080fd5b8135610adf848260208601610a6b565b91505092915050565b600081359050610af7816112c5565b92915050565b600060208284031215610b0f57600080fd5b6000610b1d84828501610aa9565b91505092915050565b600060208284031215610b3857600080fd5b600082013567ffffffffffffffff811115610b5257600080fd5b610b5e84828501610abe565b91505092915050565b600060208284031215610b7957600080fd5b6000610b8784828501610ae8565b91505092915050565b6000610b9c8383610dcf565b905092915050565b610bad81611100565b82525050565b610bbc81611100565b82525050565b6000610bcd82611049565b610bd7818561106c565b935083602082028501610be985611039565b8060005b85811015610c255784840389528151610c068582610b90565b9450610c118361105f565b925060208a01995050600181019050610bed565b50829750879550505050505092915050565b6000610c4282611054565b610c4c8185611088565b9350610c5c81856020860161114b565b610c658161129d565b840191505092915050565b6000610c7b82611054565b610c858185611099565b9350610c9581856020860161114b565b610c9e8161129d565b840191505092915050565b6000610cb6603483611099565b91507f547279696e6720746f207769746864726177206d6f7265206d6f6e657920746860008301527f616e2074686520636f6e7472616374206861732e0000000000000000000000006020830152604082019050919050565b6000610d1c602783611099565b91507f4661696c656420746f207769746864726177206d6f6e65792066726f6d20636f60008301527f6e74726163742e000000000000000000000000000000000000000000000000006020830152604082019050919050565b6000610d8260008361107d565b9150600082019050919050565b6000610d9c600883611099565b91507f576169742031356d0000000000000000000000000000000000000000000000006000830152602082019050919050565b6000606083016000830151610de76000860182610ba4565b5060208301518482036020860152610dff8282610c37565b9150506040830151610e146040860182610e1f565b508091505092915050565b610e2881611132565b82525050565b610e3781611132565b82525050565b6000610e4882610d75565b9150819050919050565b6000606082019050610e676000830186610bb3565b8181036020830152610e798185610c70565b9050610e886040830184610e2e565b949350505050565b60006020820190508181036000830152610eaa8184610bc2565b905092915050565b60006020820190508181036000830152610ecc8184610c70565b905092915050565b60006040820190508181036000830152610eee8185610c70565b9050610efd6020830184610bb3565b9392505050565b60006040820190508181036000830152610f1e8185610c70565b9050610f2d6020830184610e2e565b9392505050565b60006020820190508181036000830152610f4d81610ca9565b9050919050565b60006020820190508181036000830152610f6d81610d0f565b9050919050565b60006020820190508181036000830152610f8d81610d8f565b9050919050565b6000602082019050610fa96000830184610e2e565b92915050565b6000604082019050610fc46000830185610e2e565b610fd16020830184610e2e565b9392505050565b6000604051905081810181811067ffffffffffffffff82111715610fff57610ffe61126e565b5b8060405250919050565b600067ffffffffffffffff8211156110245761102361126e565b5b601f19601f8301169050602081019050919050565b6000819050602082019050919050565b600081519050919050565b600081519050919050565b6000602082019050919050565b600082825260208201905092915050565b600081905092915050565b600082825260208201905092915050565b600082825260208201905092915050565b60006110b582611132565b91506110c083611132565b9250827fffffffffffffffffffffffffffffffffffffffffffffffffffffffffffffffff038211156110f5576110f46111e1565b5b828201905092915050565b600061110b82611112565b9050919050565b600073ffffffffffffffffffffffffffffffffffffffff82169050919050565b6000819050919050565b82818337600083830152505050565b60005b8381101561116957808201518184015260208101905061114e565b83811115611178576000848401525b50505050565b6000600282049050600182168061119657607f821691505b602082108114156111aa576111a961123f565b5b50919050565b60006111bb82611132565b91506111c683611132565b9250826111d6576111d5611210565b5b828206905092915050565b7f4e487b7100000000000000000000000000000000000000000000000000000000600052601160045260246000fd5b7f4e487b7100000000000000000000000000000000000000000000000000000000600052601260045260246000fd5b7f4e487b7100000000000000000000000000000000000000000000000000000000600052602260045260246000fd5b7f4e487b7100000000000000000000000000000000000000000000000000000000600052604160045260246000fd5b6000601f19601f8301169050919050565b6112b781611100565b81146112c257600080fd5b50565b6112ce81611132565b81146112d957600080fd5b5056fea2646970667358221220e713cc349233498b260146e08fb55e4865fc01a21f3168277a3f4ec33008163a64736f6c63430008000033",
  "linkReferences": {},
  "deployedLinkReferences": {}
}