{
  "_format": "hh-sol-artifact-1",
  "contractName": "WavePortal",
  "sourceName": "contracts/WavePortal.sol",
  "abi": [
    {
      "inputs": [],
      "stateMutability": "nonpayable",
      "type": "constructor"
    },
    {
      "anonymous": false,
      "inputs": [
        {
          "indexed": true,
          "internalType": "address",
          "name": "from",
          "type": "address"
        },
        {
          "indexed": false,
          "internalType": "uint256",
          "name": "timestamp",
          "type": "uint256"
        },
        {
          "indexed": false,
          "internalType": "string",
          "name": "message",
          "type": "string"
        },
        {
          "indexed": false,
          "internalType": "uint256",
          "name": "totalWaves",
          "type": "uint256"
        },
        {
          "indexed": false,
          "internalType": "uint256",
          "name": "totalPeople",
          "type": "uint256"
        }
      ],
      "name": "NewWave",
      "type": "event"
    },
    {
      "inputs": [
        {
          "internalType": "address",
          "name": "",
          "type": "address"
        }
      ],
      "name": "addressToWaves",
      "outputs": [
        {
          "internalType": "uint256",
          "name": "",
          "type": "uint256"
        }
      ],
      "stateMutability": "view",
      "type": "function"
    },
    {
      "inputs": [],
      "name": "getAllWaves",
      "outputs": [
        {
          "components": [
            {
              "internalType": "address",
              "name": "from",
              "type": "address"
            },
            {
              "internalType": "string",
              "name": "message",
              "type": "string"
            },
            {
              "internalType": "uint256",
              "name": "timestamp",
              "type": "uint256"
            }
          ],
          "internalType": "struct WavePortal.Wave[]",
          "name": "",
          "type": "tuple[]"
        }
      ],
      "stateMutability": "view",
      "type": "function"
    },
    {
      "inputs": [],
      "name": "getTotalPeople",
      "outputs": [
        {
          "internalType": "uint256",
          "name": "",
          "type": "uint256"
        }
      ],
      "stateMutability": "view",
      "type": "function"
    },
    {
      "inputs": [],
      "name": "getTotalWaves",
      "outputs": [
        {
          "internalType": "uint256",
          "name": "",
          "type": "uint256"
        }
      ],
      "stateMutability": "view",
      "type": "function"
    },
    {
      "inputs": [
        {
          "internalType": "string",
          "name": "_message",
          "type": "string"
        }
      ],
      "name": "wave",
      "outputs": [],
      "stateMutability": "nonpayable",
      "type": "function"
    },
    {
      "inputs": [
        {
          "internalType": "uint256",
          "name": "",
          "type": "uint256"
        }
      ],
      "name": "waves",
      "outputs": [
        {
          "internalType": "address",
          "name": "from",
          "type": "address"
        },
        {
          "internalType": "string",
          "name": "message",
          "type": "string"
        },
        {
          "internalType": "uint256",
          "name": "timestamp",
          "type": "uint256"
        }
      ],
      "stateMutability": "view",
      "type": "function"
    }
  ],
  "bytecode": "0x60806040523480156200001157600080fd5b506200005d6040518060400160405280601181526020017f636f6e7472616374206465706c6f7965640000000000000000000000000000008152506200006360201b6200064d1760201c565b620001f7565b62000103816040516024016200007a919062000170565b6040516020818303038152906040527f41304fac000000000000000000000000000000000000000000000000000000007bffffffffffffffffffffffffffffffffffffffffffffffffffffffff19166020820180517bffffffffffffffffffffffffffffffffffffffffffffffffffffffff83818316178352505050506200010660201b60201c565b50565b60008151905060006a636f6e736f6c652e6c6f679050602083016000808483855afa5050505050565b60006200013c8262000194565b6200014881856200019f565b93506200015a818560208601620001b0565b6200016581620001e6565b840191505092915050565b600060208201905081810360008301526200018c81846200012f565b905092915050565b600081519050919050565b600082825260208201905092915050565b60005b83811015620001d0578082015181840152602081019050620001b3565b83811115620001e0576000848401525b50505050565b6000601f19601f8301169050919050565b610f8080620002076000396000f3fe608060405234801561001057600080fd5b50600436106100625760003560e01c80632d78cbf014610067578063449d46c01461009757806361227200146100b35780639a2cdc08146100d1578063bd43a908146100ef578063c781267a1461010d575b600080fd5b610081600480360381019061007c91906108e3565b61013f565b60405161008e9190610bbd565b60405180910390f35b6100b160048036038101906100ac919061090c565b610157565b005b6100bb610407565b6040516100c89190610bbd565b60405180910390f35b6100d9610411565b6040516100e69190610bbd565b60405180910390f35b6100f761041a565b6040516101049190610b3b565b60405180910390f35b6101276004803603810190610122919061094d565b61056b565b60405161013693929190610afd565b60405180910390f35b60026020528060005260406000206000915090505481565b60016000808282546101699190610ceb565b92505081905550600360405180606001604052803373ffffffffffffffffffffffffffffffffffffffff16815260200183815260200142815250908060018154018082558091505060019003906000526020600020906003020160009091909190915060008201518160000160006101000a81548173ffffffffffffffffffffffffffffffffffffffff021916908373ffffffffffffffffffffffffffffffffffffffff160217905550602082015181600101908051906020019061022f9291906107ae565b506040820151816002015550506000600260003373ffffffffffffffffffffffffffffffffffffffff1673ffffffffffffffffffffffffffffffffffffffff16815260200190815260200160002054141561029e5760018060008282546102969190610ceb565b925050819055505b6001600260003373ffffffffffffffffffffffffffffffffffffffff1673ffffffffffffffffffffffffffffffffffffffff16815260200190815260200160002060008282546102ee9190610ceb565b9250508190555060006003600260003373ffffffffffffffffffffffffffffffffffffffff1673ffffffffffffffffffffffffffffffffffffffff168152602001908152602001600020546103439190610df1565b14156103ac576103ab6040518060600160405280602d8152602001610f1e602d913933600260003373ffffffffffffffffffffffffffffffffffffffff1673ffffffffffffffffffffffffffffffffffffffff168152602001908152602001600020546106e6565b5b3373ffffffffffffffffffffffffffffffffffffffff167f86b462cbdc3227a2a251b4d9482a9137d6ce400cf78c1fd7358498ac1924ed8e42836000546001546040516103fc9493929190610bd8565b60405180910390a250565b6000600154905090565b60008054905090565b60606003805480602002602001604051908101604052809291908181526020016000905b8282101561056257838290600052602060002090600302016040518060600160405290816000820160009054906101000a900473ffffffffffffffffffffffffffffffffffffffff1673ffffffffffffffffffffffffffffffffffffffff1673ffffffffffffffffffffffffffffffffffffffff1681526020016001820180546104c790610dbf565b80601f01602080910402602001604051908101604052809291908181526020018280546104f390610dbf565b80156105405780601f1061051557610100808354040283529160200191610540565b820191906000526020600020905b81548152906001019060200180831161052357829003601f168201915b505050505081526020016002820154815250508152602001906001019061043e565b50505050905090565b6003818154811061057b57600080fd5b90600052602060002090600302016000915090508060000160009054906101000a900473ffffffffffffffffffffffffffffffffffffffff16908060010180546105c490610dbf565b80601f01602080910402602001604051908101604052809291908181526020018280546105f090610dbf565b801561063d5780601f106106125761010080835404028352916020019161063d565b820191906000526020600020905b81548152906001019060200180831161062057829003601f168201915b5050505050908060020154905083565b6106e3816040516024016106619190610b5d565b6040516020818303038152906040527f41304fac000000000000000000000000000000000000000000000000000000007bffffffffffffffffffffffffffffffffffffffffffffffffffffffff19166020820180517bffffffffffffffffffffffffffffffffffffffffffffffffffffffff8381831617835250505050610785565b50565b6107808383836040516024016106fe93929190610b7f565b6040516020818303038152906040527f07c81217000000000000000000000000000000000000000000000000000000007bffffffffffffffffffffffffffffffffffffffffffffffffffffffff19166020820180517bffffffffffffffffffffffffffffffffffffffffffffffffffffffff8381831617835250505050610785565b505050565b60008151905060006a636f6e736f6c652e6c6f679050602083016000808483855afa5050505050565b8280546107ba90610dbf565b90600052602060002090601f0160209004810192826107dc5760008555610823565b82601f106107f557805160ff1916838001178555610823565b82800160010185558215610823579182015b82811115610822578251825591602001919060010190610807565b5b5090506108309190610834565b5090565b5b8082111561084d576000816000905550600101610835565b5090565b600061086461085f84610c55565b610c24565b90508281526020810184848401111561087c57600080fd5b610887848285610d7d565b509392505050565b60008135905061089e81610eef565b92915050565b600082601f8301126108b557600080fd5b81356108c5848260208601610851565b91505092915050565b6000813590506108dd81610f06565b92915050565b6000602082840312156108f557600080fd5b60006109038482850161088f565b91505092915050565b60006020828403121561091e57600080fd5b600082013567ffffffffffffffff81111561093857600080fd5b610944848285016108a4565b91505092915050565b60006020828403121561095f57600080fd5b600061096d848285016108ce565b91505092915050565b60006109828383610a8f565b905092915050565b61099381610d41565b82525050565b6109a281610d41565b82525050565b60006109b382610c95565b6109bd8185610cb8565b9350836020820285016109cf85610c85565b8060005b85811015610a0b57848403895281516109ec8582610976565b94506109f783610cab565b925060208a019950506001810190506109d3565b50829750879550505050505092915050565b6000610a2882610ca0565b610a328185610cc9565b9350610a42818560208601610d8c565b610a4b81610ede565b840191505092915050565b6000610a6182610ca0565b610a6b8185610cda565b9350610a7b818560208601610d8c565b610a8481610ede565b840191505092915050565b6000606083016000830151610aa7600086018261098a565b5060208301518482036020860152610abf8282610a1d565b9150506040830151610ad46040860182610adf565b508091505092915050565b610ae881610d73565b82525050565b610af781610d73565b82525050565b6000606082019050610b126000830186610999565b8181036020830152610b248185610a56565b9050610b336040830184610aee565b949350505050565b60006020820190508181036000830152610b5581846109a8565b905092915050565b60006020820190508181036000830152610b778184610a56565b905092915050565b60006060820190508181036000830152610b998186610a56565b9050610ba86020830185610999565b610bb56040830184610aee565b949350505050565b6000602082019050610bd26000830184610aee565b92915050565b6000608082019050610bed6000830187610aee565b8181036020830152610bff8186610a56565b9050610c0e6040830185610aee565b610c1b6060830184610aee565b95945050505050565b6000604051905081810181811067ffffffffffffffff82111715610c4b57610c4a610eaf565b5b8060405250919050565b600067ffffffffffffffff821115610c7057610c6f610eaf565b5b601f19601f8301169050602081019050919050565b6000819050602082019050919050565b600081519050919050565b600081519050919050565b6000602082019050919050565b600082825260208201905092915050565b600082825260208201905092915050565b600082825260208201905092915050565b6000610cf682610d73565b9150610d0183610d73565b9250827fffffffffffffffffffffffffffffffffffffffffffffffffffffffffffffffff03821115610d3657610d35610e22565b5b828201905092915050565b6000610d4c82610d53565b9050919050565b600073ffffffffffffffffffffffffffffffffffffffff82169050919050565b6000819050919050565b82818337600083830152505050565b60005b83811015610daa578082015181840152602081019050610d8f565b83811115610db9576000848401525b50505050565b60006002820490506001821680610dd757607f821691505b60208210811415610deb57610dea610e80565b5b50919050565b6000610dfc82610d73565b9150610e0783610d73565b925082610e1757610e16610e51565b5b828206905092915050565b7f4e487b7100000000000000000000000000000000000000000000000000000000600052601160045260246000fd5b7f4e487b7100000000000000000000000000000000000000000000000000000000600052601260045260246000fd5b7f4e487b7100000000000000000000000000000000000000000000000000000000600052602260045260246000fd5b7f4e487b7100000000000000000000000000000000000000000000000000000000600052604160045260246000fd5b6000601f19601f8301169050919050565b610ef881610d41565b8114610f0357600080fd5b50565b610f0f81610d73565b8114610f1a57600080fd5b5056fe2573206973206f6e20f09f94a520616e642068617320616c72656164792077617665642025642074696d657321a2646970667358221220d79598361c60d16fd279e01dbe7cfd7cfcecd037ee62701753fdb4b9443aac1b64736f6c63430008000033",
  "linkReferences": {},
  "deployedLinkReferences": {}
}